:020000040000FA
:020000000428D2
:08000800FF3083120313A10075
:10001000FF30A200B3200030CF20FF30CB2083126E
:100020000313A501A601A701A8010030B92083127E
:1000300003132317B82083120313A313B7208312CB
:100040000313061C2928061C262823280130A70094
:100050006228861C3128861C2E282B280230A700F7
:100060006228061D3928061D362833280330A700CC
:100070006228861D4128861D3E283B280430A700A3
:100080006228061E4928061E462843280530A70078
:100090006228861E5128861E4E284B280630A7004F
:1000A0006228061F5928061F562853280730A70024
:1000B0006228861F6128861F5E285B280830A700FB
:1000C0006228A701A808031D6E282708053C031D08
:1000D0006E28A70803196E28A80A8C28A7080319F8
:1000E0008C282808013C031D8C282708063C031D8A
:1000F0008928A317B720831203132313B8200130D4
:100100008E20831203132317B82083120313A31323
:10011000B72083120313A8011F288D28831203130D
:10012000A90083120313290883120313AA00643061
:1001300083120313AB0032309D2883120313AC00EB
:10014000FF3083120313AD002B08AF002A08AE0066
:1001500017302D070318A928AE0BA828AF0BA62827
:10016000AC0BA4280800DD2007309F000800C4283D
:10017000C42883120313A400BD2883120313240888
:1001800083120313860008008312031323088312CB
:1001900003138500080083120313A200D3288312DF
:1001A0000313A100D8288312031322086600080055
:1001B000831203132108650008008312031308004B
:02400E00103F61
:00000001FF
